:04000000EDEF0AF026
:10100000000062EC0BF0220E2D6E380E2E6E2EECD0
:101010000AF01F0E2D6E370E2E6E2EEC0AF03804DD
:10102000D8A415EF08F017EF08F036EF08F03650A7
:10103000D8A41DEF08F01FEF08F036EF08F0010EFE
:10104000366E040E346E0C0E336E340EE82EFED760
:10105000332EFCD7342EFAD7250E2E6E06EC0BF06D
:10106000260E2E6E06EC0BF05BEF08F03804D8A4C9
:101070003CEF08F03EEF08F05BEF08F03604D8A430
:1010800044EF08F046EF08F05BEF08F0000E366E14
:10109000040E346E0C0E336E340EE82EFED7332E53
:1010A000FCD7342EFAD7260E2E6E1FEC0BF0250E31
:1010B0002E6E1FEC0BF03704D8A461EF08F063EF3D
:1010C00008F082EF08F03550D8A469EF08F06BEF14
:1010D00008F082EF08F0010E356E040E346E0C0E2F
:1010E000336E340EE82EFED7332EFCD7342EFAD7CB
:1010F000260E2E6E06EC0BF0250E2E6E1FEC0BF05E
:1011000003EF08F03704D8A488EF08F08AEF08F05E
:10111000A9EF08F03504D8A490EF08F092EF08F09A
:10112000A9EF08F0000E356E040E346E0C0E336E0F
:10113000340EE82EFED7332EFCD7342EFAD7260EE7
:101140002E6E1FEC0BF0250E2E6E06EC0BF003EF4F
:1011500008F003EF08F000EF00F02750D8B4B3EF29
:1011600008F0B5EF08F0D3EF08F02750D96EDA6A2F
:10117000DF30E832E832070B286E080E2860C3EF34
:1011800008F0C5EF08F0D3EF08F02750D96EDA6AFF
:10119000DF50070B286E040E2864D1EF08F0D3EF60
:1011A00008F028EF09F03EEF09F02750D96EDA6A0F
:1011B000DF30E832E832070B286E010E296E282A4C
:1011C000E4EF08F0D8902936282EE2EF08F02750F7
:1011D000D96EDA6ADF50070B020DF350150FD96E86
:1011E000DA6ADECF2AF0DDCF2BF02AC0D9FF2BC080
:1011F000DAFF2950DF12D3EF08F02750D96EDA6AF0
:10120000DF30E832E832070B286E010E296E282AFB
:101210000CEF09F0D8902936282E0AEF09F0295052
:10122000FF0A2A6E2750D96EDA6ADF50070B020DCB
:10123000F350150FD96EDA6ADECF2BF0DDCF2CF02C
:101240002BC0D9FF2CC0DAFF2A50DF16D3EF08F0ED
:101250002750D96EDA6ADFBC30EF09F033EF09F0BE
:10126000010E34EF09F0000E000AD8B4FDEF08F0CB
:10127000010AD8B4D5EF08F0D3EF08F0010E120040
:101280002750D8B446EF09F048EF09F066EF09F0AF
:101290002750D96EDA6ADF30E832E832070B296E60
:1012A000080E296056EF09F058EF09F066EF09F0D3
:1012B0002750D96EDA6ADF50070B296E040E2964B5
:1012C00064EF09F066EF09F0BBEF09F0D0EF09F029
:1012D0002750D96EDA6ADF30E832E832070B296E20
:1012E000010E2A6E292A77EF09F0D8902A36292E86
:1012F00075EF09F02A50FF0A2B6E2750D96EDA6A73
:10130000DF50070B020DF350010FD96EDA6ADECF02
:101310002CF0DDCF2DF02CC0D9FF2DC0DAFF2B50E3
:10132000DF1666EF09F02750D96EDA6ADF30E8324F
:10133000E832070B296E010E2A6E292AA2EF09F066
:10134000D8902A36292EA0EF09F02750D96EDA6AF4
:10135000DF50070B020DF350010FD96EDA6ADECFB2
:101360002BF0DDCF2CF02BC0D9FF2CC0DAFF2A5098
:10137000DF1266EF09F02850296E2A6A2A50000A07
:10138000D8B4C5EF09F066EF09F02950000AD8B4C7
:1013900068EF09F0010AD8B493EF09F066EF09F09D
:1013A000010E12002750D8B4D8EF09F0DAEF09F097
:1013B00000EF0AF02850D8B4E0EF09F0E2EF09F0AE
:1013C00000EF0AF02750D96EDA6ADF30E832E832EF
:1013D000070B296E080E2960F0EF09F0F2EF09F013
:1013E00000EF0AF02750D96EDA6ADF50070B296E3A
:1013F000040E2964FEEF09F000EF0AF002EF0AF094
:101400002CEF0AF02850D96EDA6A2750E16EE26AB2
:10141000E730E832E832070B296E2750E16EE26AC6
:10142000E750070B020DF3500B0FE16EE26AE6CFB7
:101430002AF0E5CF2BF02AC0E1FF2BC0E2FFE750F6
:101440002C6E292A26EF0AF0D8902C32292E24EF70
:101450000AF02C50010BDF6E010E12002D50D8B493
:1014600034EF0AF036EF0AF03EEF0AF02E50D8A41F
:101470003CEF0AF03EEF0AF040EF0AF081EF0AF08D
:10148000000E306E2DC027F0300E286ED2EC09F021
:101490002D50D96EDA6A020ED926DE04D8A453EF95
:1014A0000AF055EF0AF06AEF0AF03004D8A45BEFB7
:1014B0000AF05DEF0AF064EF0AF02E50D96EDA6A96
:1014C000010EDF6E3EEF0AF02E50D96EDA6ADF6A47
:1014D0003EEF0AF02D50D96EDA6A020ED926DF509F
:1014E000D8A475EF0AF077EF0AF081EF0AF0300424
:1014F000D8A47DEF0AF07FEF0AF05DEF0AF064EF09
:101500000AF012002E50D8B488EF0AF08AEF0AF0E1
:10151000A8EF0AF02E50D96EDA6ADF30E832E832EE
:10152000070B2F6E080E2F6098EF0AF09AEF0AF063
:10153000A8EF0AF02E50D96EDA6ADF50070B2F6E33
:10154000040E2F64A6EF0AF0A8EF0AF0AAEF0AF043
:10155000BBEF0AF02EC027F0ADEC08F0306E2EC0C5
:1015600027F02E50D96EDA6A000EDFBE010E286E0B
:1015700040EC09F0301612002750D96EDA6ADF9C71
:101580002850D96EDA6A2750E16EE26AE79EDFAC36
:10159000CBEF0AF0E78E2850D96EDA6ADF30E832F6
:1015A000E832070B296E2750D96EDA6A2946294698
:1015B0002946DF502918C70B2918DF6E2850D96E2D
:1015C000DA6ADF50070B296E2750D96EDA6ADF50CE
:1015D0002918F80B2918DF6E12009E0EF66E160EF3
:1015E000F76E000EF86E00EE01F010EE26F0090026
:1015F000F5CFEEFFE550E150FAE1386A376A366A16
:10160000356A000EF86E000101EF08F02E50D8A4E4
:101610000CEF0BF00EEF0BF010EF0BF01EEF0BF0DA
:101620002F0E276E2EC028F0BCEC0AF02F0E276E6E
:10163000010E286E40EC09F00EEF0BF012002E5058
:10164000D8A425EF0BF027EF0BF029EF0BF037EFC5
:101650000BF02F0E276E2EC028F0BCEC0AF02F0ED8
:10166000276E000E286E40EC09F027EF0BF01200F9
:101670003150D8A43EEF0BF040EF0BF042EF0BF0EF
:101680004EEF0BF0320E276E31C028F0BCEC0AF0A2
:10169000320E2E6E82EC0AF040EF0BF01200890F32
:1016A0008A0F8B0F8C0F8D0F800F810F820F830F8E
:1016B000840F920F930F940F950F960F5A000152BB
:1016C00000010A02260E316E38EC0BF0250E316E49
:1016D00038EC0BF0220E2D6E73EC0BF01F0E2D6EFE
:1016E00073EC0BF012002D50D8A479EF0BF07BEFC8
:1016F0000BF07DEF0BF081EF0BF02DC027F0ADEC80
:0417000008F01200DB
:00000001FF
